{
  "contractName": "MultiSenders",
  "abi": [
    {
      "inputs": [],
      "stateMutability": "nonpayable",
      "type": "constructor"
    },
    {
      "anonymous": false,
      "inputs": [
        {
          "indexed": false,
          "internalType": "uint256",
          "name": "count",
          "type": "uint256"
        },
        {
          "indexed": false,
          "internalType": "uint256",
          "name": "amounts",
          "type": "uint256"
        },
        {
          "indexed": false,
          "internalType": "uint256",
          "name": "fee",
          "type": "uint256"
        }
      ],
      "name": "Multisent",
      "type": "event"
    },
    {
      "anonymous": false,
      "inputs": [
        {
          "indexed": true,
          "internalType": "address",
          "name": "previousOwner",
          "type": "address"
        },
        {
          "indexed": true,
          "internalType": "address",
          "name": "newOwner",
          "type": "address"
        }
      ],
      "name": "OwnershipTransferred",
      "type": "event"
    },
    {
      "anonymous": false,
      "inputs": [
        {
          "indexed": false,
          "internalType": "uint256",
          "name": "price",
          "type": "uint256"
        },
        {
          "indexed": false,
          "internalType": "uint256",
          "name": "count",
          "type": "uint256"
        }
      ],
      "name": "Purchased",
      "type": "event"
    },
    {
      "anonymous": false,
      "inputs": [
        {
          "indexed": false,
          "internalType": "address",
          "name": "receiver",
          "type": "address"
        },
        {
          "indexed": false,
          "internalType": "uint256",
          "name": "amounts",
          "type": "uint256"
        }
      ],
      "name": "Withdrawed",
      "type": "event"
    },
    {
      "inputs": [],
      "name": "VERSION_NUMBER",
      "outputs": [
        {
          "internalType": "string",
          "name": "",
          "type": "string"
        }
      ],
      "stateMutability": "view",
      "type": "function",
      "constant": true
    },
    {
      "inputs": [],
      "name": "owner",
      "outputs": [
        {
          "internalType": "address",
          "name": "",
          "type": "address"
        }
      ],
      "stateMutability": "view",
      "type": "function",
      "constant": true
    },
    {
      "inputs": [],
      "name": "renounceOwnership",
      "outputs": [],
      "stateMutability": "nonpayable",
      "type": "function"
    },
    {
      "inputs": [
        {
          "internalType": "address",
          "name": "newOwner",
          "type": "address"
        }
      ],
      "name": "transferOwnership",
      "outputs": [],
      "stateMutability": "nonpayable",
      "type": "function"
    },
    {
      "stateMutability": "payable",
      "type": "receive",
      "payable": true
    },
    {
      "inputs": [
        {
          "internalType": "address",
          "name": "receiver",
          "type": "address"
        },
        {
          "internalType": "address",
          "name": "token",
          "type": "address"
        }
      ],
      "name": "withdraw",
      "outputs": [],
      "stateMutability": "nonpayable",
      "type": "function"
    },
    {
      "inputs": [
        {
          "internalType": "address[]",
          "name": "payees",
          "type": "address[]"
        },
        {
          "internalType": "uint256[]",
          "name": "amounts",
          "type": "uint256[]"
        }
      ],
      "name": "multisendEther",
      "outputs": [],
      "stateMutability": "payable",
      "type": "function",
      "payable": true
    },
    {
      "inputs": [
        {
          "internalType": "address",
          "name": "token",
          "type": "address"
        },
        {
          "internalType": "address[]",
          "name": "payees",
          "type": "address[]"
        },
        {
          "internalType": "uint256[]",
          "name": "amounts",
          "type": "uint256[]"
        }
      ],
      "name": "multisendERC20",
      "outputs": [],
      "stateMutability": "nonpayable",
      "type": "function"
    }
  ],
  "bytecode": "0x608060405234801561001057600080fd5b5061002d61002261003260201b60201c565b61003a60201b60201c565b6100fe565b600033905090565b60008060009054906101000a900473ffffffffffffffffffffffffffffffffffffffff169050816000806101000a81548173ffffffffffffffffffffffffffffffffffffffff021916908373ffffffffffffffffffffffffffffffffffffffff1602179055508173ffffffffffffffffffffffffffffffffffffffff168173ffffffffffffffffffffffffffffffffffffffff167f8be0079c531659141344cd1fd0a4f28419497f9722a3daafe3b4186f6b6457e060405160405180910390a35050565b61134f8061010d6000396000f3fe6080604052600436106100745760003560e01c80638da5cb5b1161004e5780638da5cb5b146100eb578063ab883d2814610116578063f2fde38b14610132578063f940e3851461015b5761007b565b8063715018a61461008057806374ad291c146100975780638025e303146100c05761007b565b3661007b57005b600080fd5b34801561008c57600080fd5b50610095610184565b005b3480156100a357600080fd5b506100be60048036038101906100b99190610c81565b61020c565b005b3480156100cc57600080fd5b506100d56103f3565b6040516100e29190610d94565b60405180910390f35b3480156100f757600080fd5b5061010061042c565b60405161010d9190610dc5565b60405180910390f35b610130600480360381019061012b9190610de0565b610455565b005b34801561013e57600080fd5b5061015960048036038101906101549190610e58565b610576565b005b34801561016757600080fd5b50610182600480360381019061017d9190610e85565b61066e565b005b61018c6108c5565b73ffffffffffffffffffffffffffffffffffffffff166101aa61042c565b73ffffffffffffffffffffffffffffffffffffffff1614610200576040517f08c379a00000000000000000000000000000000000000000000000000000000081526004016101f790610f11565b60405180910390fd5b61020a60006108cd565b565b8051825114610250576040517f08c379a000000000000000000000000000000000000000000000000000000000815260040161024790610f7d565b60405180910390fd5b600083905060008060005b85518110156103ae5760008473ffffffffffffffffffffffffffffffffffffffff166323b872dd3389858151811061029657610295610f9d565b5b60200260200101518986815181106102b1576102b0610f9d565b5b60200260200101516040518463ffffffff1660e01b81526004016102d793929190610fdb565b602060405180830381600087803b1580156102f157600080fd5b505af1158015610305573d6000803e3d6000fd5b505050506040513d601f19601f82011682018060405250810190610329919061104a565b90508061036b576040517f08c379a0000000000000000000000000000000000000000000000000000000008152600401610362906110c3565b60405180910390fd5b61039886838151811061038157610380610f9d565b5b60200260200101518561099190919063ffffffff16565b93505080806103a690611112565b91505061025b565b507fe967051b2550f878a3d132189d6c75de5a2aa7dfdb9f023208f95c8372a91ac3855183836040516103e39392919061115b565b60405180910390a1505050505050565b6040518060400160405280600681526020017f76312e302e31000000000000000000000000000000000000000000000000000081525081565b60008060009054906101000a900473ffffffffffffffffffffffffffffffffffffffff16905090565b60008060005b84518110156105215784818151811061047757610476610f9d565b5b602002602001015173ffffffffffffffffffffffffffffffffffffffff166108fc8583815181106104ab576104aa610f9d565b5b60200260200101519081150290604051600060405180830381858888f193505050501580156104de573d6000803e3d6000fd5b5061050c8482815181106104f5576104f4610f9d565b5b60200260200101518461099190919063ffffffff16565b9250808061051990611112565b91505061045b565b507fe967051b2550f878a3d132189d6c75de5a2aa7dfdb9f023208f95c8372a91ac3845161055883346109a790919063ffffffff16565b836040516105689392919061115b565b60405180910390a150505050565b61057e6108c5565b73ffffffffffffffffffffffffffffffffffffffff1661059c61042c565b73ffffffffffffffffffffffffffffffffffffffff16146105f2576040517f08c379a00000000000000000000000000000000000000000000000000000000081526004016105e990610f11565b60405180910390fd5b600073ffffffffffffffffffffffffffffffffffffffff168173ffffffffffffffffffffffffffffffffffffffff161415610662576040517f08c379a000000000000000000000000000000000000000000000000000000000815260040161065990611204565b60405180910390fd5b61066b816108cd565b50565b6106766108c5565b73ffffffffffffffffffffffffffffffffffffffff1661069461042c565b73ffffffffffffffffffffffffffffffffffffffff16146106ea576040517f08c379a00000000000000000000000000000000000000000000000000000000081526004016106e190610f11565b60405180910390fd5b6000479050600073ffffffffffffffffffffffffffffffffffffffff168273ffffffffffffffffffffffffffffffffffffffff161415610770578273ffffffffffffffffffffffffffffffffffffffff166108fc479081150290604051600060405180830381858888f1935050505015801561076a573d6000803e3d6000fd5b50610887565b8173ffffffffffffffffffffffffffffffffffffffff1663a9059cbb848473ffffffffffffffffffffffffffffffffffffffff166370a08231306040518263ffffffff1660e01b81526004016107c69190610dc5565b60206040518083038186803b1580156107de57600080fd5b505afa1580156107f2573d6000803e3d6000fd5b505050506040513d601f19601f820116820180604052508101906108169190611239565b6040518363ffffffff1660e01b8152600401610833929190611266565b602060405180830381600087803b15801561084d57600080fd5b505af1158015610861573d6000803e3d6000fd5b505050506040513d601f19601f82011682018060405250810190610885919061104a565b505b7f6cca423c6ffc06e62a0acc433965e074b11c28479b0449250ce3ff65ac9e39fe83826040516108b8929190611266565b60405180910390a1505050565b600033905090565b60008060009054906101000a900473ffffffffffffffffffffffffffffffffffffffff169050816000806101000a81548173ffffffffffffffffffffffffffffffffffffffff021916908373ffffffffffffffffffffffffffffffffffffffff1602179055508173ffffffffffffffffffffffffffffffffffffffff168173ffffffffffffffffffffffffffffffffffffffff167f8be0079c531659141344cd1fd0a4f28419497f9722a3daafe3b4186f6b6457e060405160405180910390a35050565b6000818361099f919061128f565b905092915050565b600081836109b591906112e5565b905092915050565b6000604051905090565b600080fd5b600080fd5b600073ffffffffffffffffffffffffffffffffffffffff82169050919050565b60006109fc826109d1565b9050919050565b610a0c816109f1565b8114610a1757600080fd5b50565b600081359050610a2981610a03565b92915050565b600080fd5b6000601f19601f8301169050919050565b7f4e487b7100000000000000000000000000000000000000000000000000000000600052604160045260246000fd5b610a7d82610a34565b810181811067ffffffffffffffff82111715610a9c57610a9b610a45565b5b80604052505050565b6000610aaf6109bd565b9050610abb8282610a74565b919050565b600067ffffffffffffffff821115610adb57610ada610a45565b5b602082029050602081019050919050565b600080fd5b6000610b04610aff84610ac0565b610aa5565b90508083825260208201905060208402830185811115610b2757610b26610aec565b5b835b81811015610b505780610b3c8882610a1a565b845260208401935050602081019050610b29565b5050509392505050565b600082601f830112610b6f57610b6e610a2f565b5b8135610b7f848260208601610af1565b91505092915050565b600067ffffffffffffffff821115610ba357610ba2610a45565b5b602082029050602081019050919050565b6000819050919050565b610bc781610bb4565b8114610bd257600080fd5b50565b600081359050610be481610bbe565b92915050565b6000610bfd610bf884610b88565b610aa5565b90508083825260208201905060208402830185811115610c2057610c1f610aec565b5b835b81811015610c495780610c358882610bd5565b845260208401935050602081019050610c22565b5050509392505050565b600082601f830112610c6857610c67610a2f565b5b8135610c78848260208601610bea565b91505092915050565b600080600060608486031215610c9a57610c996109c7565b5b6000610ca886828701610a1a565b935050602084013567ffffffffffffffff811115610cc957610cc86109cc565b5b610cd586828701610b5a565b925050604084013567ffffffffffffffff811115610cf657610cf56109cc565b5b610d0286828701610c53565b9150509250925092565b600081519050919050565b600082825260208201905092915050565b60005b83811015610d46578082015181840152602081019050610d2b565b83811115610d55576000848401525b50505050565b6000610d6682610d0c565b610d708185610d17565b9350610d80818560208601610d28565b610d8981610a34565b840191505092915050565b60006020820190508181036000830152610dae8184610d5b565b905092915050565b610dbf816109f1565b82525050565b6000602082019050610dda6000830184610db6565b92915050565b60008060408385031215610df757610df66109c7565b5b600083013567ffffffffffffffff811115610e1557610e146109cc565b5b610e2185828601610b5a565b925050602083013567ffffffffffffffff811115610e4257610e416109cc565b5b610e4e85828601610c53565b9150509250929050565b600060208284031215610e6e57610e6d6109c7565b5b6000610e7c84828501610a1a565b91505092915050565b60008060408385031215610e9c57610e9b6109c7565b5b6000610eaa85828601610a1a565b9250506020610ebb85828601610a1a565b9150509250929050565b7f4f776e61626c653a2063616c6c6572206973206e6f7420746865206f776e6572600082015250565b6000610efb602083610d17565b9150610f0682610ec5565b602082019050919050565b60006020820190508181036000830152610f2a81610eee565b9050919050565b7f494e56414c494400000000000000000000000000000000000000000000000000600082015250565b6000610f67600783610d17565b9150610f7282610f31565b602082019050919050565b60006020820190508181036000830152610f9681610f5a565b9050919050565b7f4e487b7100000000000000000000000000000000000000000000000000000000600052603260045260246000fd5b610fd581610bb4565b82525050565b6000606082019050610ff06000830186610db6565b610ffd6020830185610db6565b61100a6040830184610fcc565b949350505050565b60008115159050919050565b61102781611012565b811461103257600080fd5b50565b6000815190506110448161101e565b92915050565b6000602082840312156110605761105f6109c7565b5b600061106e84828501611035565b91505092915050565b7f5452414e534645525f4641494c44000000000000000000000000000000000000600082015250565b60006110ad600e83610d17565b91506110b882611077565b602082019050919050565b600060208201905081810360008301526110dc816110a0565b9050919050565b7f4e487b7100000000000000000000000000000000000000000000000000000000600052601160045260246000fd5b600061111d82610bb4565b91507fffffffffffffffffffffffffffffffffffffffffffffffffffffffffffffffff8214156111505761114f6110e3565b5b600182019050919050565b60006060820190506111706000830186610fcc565b61117d6020830185610fcc565b61118a6040830184610fcc565b949350505050565b7f4f776e61626c653a206e6577206f776e657220697320746865207a65726f206160008201527f6464726573730000000000000000000000000000000000000000000000000000602082015250565b60006111ee602683610d17565b91506111f982611192565b604082019050919050565b6000602082019050818103600083015261121d816111e1565b9050919050565b60008151905061123381610bbe565b92915050565b60006020828403121561124f5761124e6109c7565b5b600061125d84828501611224565b91505092915050565b600060408201905061127b6000830185610db6565b6112886020830184610fcc565b9392505050565b600061129a82610bb4565b91506112a583610bb4565b9250827fffffffffffffffffffffffffffffffffffffffffffffffffffffffffffffffff038211156112da576112d96110e3565b5b828201905092915050565b60006112f082610bb4565b91506112fb83610bb4565b92508282101561130e5761130d6110e3565b5b82820390509291505056fea264697066735822122030b6ac31dc2a17185a8d5a6e74d7eeef2d8f2b8823ed4308d76dfbe610d2e1e964736f6c63430008090033",
  "immutableReferences": {},
  "source": "// SPDX-License-Identifier: SimPL-2.0\n\npragma solidity ^0.8.0;\n\nimport \"../library/StorageMapping.sol\";\n\nimport \"@openzeppelin/contracts/access/Ownable.sol\";\nimport \"@openzeppelin/contracts/access/AccessControl.sol\";\nimport \"@openzeppelin/contracts/utils/math/SafeMath.sol\";\nimport \"@openzeppelin/contracts/token/ERC20/IERC20.sol\";\n\n/**\n* @title MultiSender Token Tool\n*\n* Version v1.1.0\n*\n*/\n\ncontract MultiSenders is Ownable {\n    using SafeMath for uint256;\n\n    string public constant VERSION_NUMBER = \"v1.0.1\";\n\n    struct TransferCount { uint256 price; uint256 count; }\n\n    mapping (bytes32 => bool) private applys;\n    mapping (uint256 => TransferCount) private transferCounts;\n\n    event Purchased(uint256 price, uint256 count);\n    event Multisent(uint256 count, uint256 amounts, uint256 fee);\n    event Withdrawed(address receiver, uint256 amounts);\n\n    constructor() {\n\n    }\n\n    receive() external payable { }\n\n    function withdraw(address receiver, address token) external onlyOwner {\n        uint256 balance = address(this).balance;\n\n        if (token == address(0)) payable(receiver).transfer(address(this).balance);\n        else IERC20(token).transfer(receiver, IERC20(token).balanceOf(address(this)));\n\n        emit Withdrawed(receiver, balance);\n    }\n\n    function multisendEther(\n        address[] memory payees, uint256[] memory amounts\n    ) external payable {\n        uint256 totalAmount = 0; uint256 fee = 0;\n\n        for (uint256 index = 0; index < payees.length; index++) {\n            payable(payees[index]).transfer(amounts[index]);\n            totalAmount = totalAmount.add(amounts[index]);\n        }\n        \n        emit Multisent(payees.length, msg.value.sub(fee), fee);\n    }\n\n    function multisendERC20(\n        address token, address[] memory payees, uint256[] memory amounts\n    ) external {\n        require(payees.length == amounts.length, \"INVALID\");\n        IERC20 multiToken = IERC20(token);\n        uint256 totalAmount = 0; uint256 fee = 0;\n        \n        for (uint256 index = 0; index < payees.length; index++) {\n            bool isSuccess = multiToken.transferFrom(\n                msg.sender, payees[index], amounts[index]\n            );\n\n            require(isSuccess, \"TRANSFER_FAILD\");\n            totalAmount = totalAmount.add(amounts[index]);\n        }\n\n        emit Multisent(payees.length, totalAmount, fee);\n    }\n}",
  "sourcePath": "/Users/cea/Projects/important/parasite-dapp/contracts/core/MultiSenders.sol",
  "compiler": {
    "name": "solc",
    "version": "0.8.9+commit.e5eed63a.Emscripten.clang"
  },
  "schemaVersion": "3.4.3",
  "updatedAt": "2022-04-19T05:59:59.096Z",
  "networkType": "ethereum",
  "devdoc": {
    "kind": "dev",
    "methods": {
      "owner()": {
        "details": "Returns the address of the current owner."
      },
      "renounceOwnership()": {
        "details": "Leaves the contract without owner. It will not be possible to call `onlyOwner` functions anymore. Can only be called by the current owner. NOTE: Renouncing ownership will leave the contract without an owner, thereby removing any functionality that is only available to the owner."
      },
      "transferOwnership(address)": {
        "details": "Transfers ownership of the contract to a new account (`newOwner`). Can only be called by the current owner."
      }
    },
    "title": "MultiSender Token Tool Version v1.1.0",
    "version": 1
  },
  "userdoc": {
    "kind": "user",
    "methods": {},
    "version": 1
  }
}